S018000049324D4944495F496E746572666163652E737265637E
S11300001BC034C033C032C031C030C02FC02EC07A
S1130010EDC12CC02BC02AC029C0B6C127C026C040
S113002025C024C023C03EC1D9C020C0BDC22AC33C
S11300301DC01CC08001820311241FBECFEFCDBFA1
S1130040DFE3DEBF2FE3A0E0BFE301C01D92A939C7
S1130050B207E1F710E0CCE1D0E003C02197FE0144
S11300605ED3CA31D107D1F757D25FC3C9CF83E07A
S113007080932504E0E1F8E083E6868381E48383CA
S113008088E0848381E0858388ED848783E88187A1
S11300900895E0E1F8E08481836084831092473F0F
S11300A00895FC0181892289821710F0821B08952A
S11300B09081890F821B089589E49FE3F2DF0895FC
S11300C0CF93C82F89E49FE3ECDF90E04091493F50
S11300D0242F30E0B9016150710986179707BCF4E9
S11300E02250310982179307A4F480915A3F8F5FFD
S11300F0841718F480935A3F02C010925A3FE0913B
S11301005A3FF0E0E75BF04CC18380E003C081E03C
S113011001C080E0CF910895FC0181A122A1821742
S113012010F0821B08959081890F821B0895CF934C
S1130130DF93EC01F1DF882359F08AA18F5F8AA352
S11301409881891708F01AA28AA1C80FD11D898144
S1130150DF91CF910895882371F08091483F8111F8
S113016002C097DF089581508093483F80E09FE369
S1130170DEDF80935C3F81E08093463F80915C3F6B
S113018080931808F8D008958091473F811125C0C5
S1130190809115088370833001F188ED80931708EE
S11301A089E49FE37EDF882381F0E9E4FFE3828929
S11301B08F5F828B9081891710F010925B3FE091E2
S11301C05B3FF0E0E75BF04C81818093483F109205
S11301D0463F81E08093473FBEDF08951F920F9210
S11301E00FB60F9211242F933F934F935F936F9306
S11301F07F938F939F93AF93BF93EF93FF938091DC
S1130200150883FF0CC08091463F882311F080E0DD
S1130210A2DFE0E1F8E085818860858302C081E0A7
S11302209ADFFF91EF91BF91AF919F918F917F9151
S11302306F915F914F913F912F910F900FBE0F904F
S11302401F9018951F93CF93DF93EC01162F64DF53
S1130250488190E0242F30E022503109821793071F
S11302605CF489A18F5F841710F489A301C019A2DB
S113027089A1C80FD11D1983DF91CF911F910895D2
S1130280CF93C82F80E09FE347DF9091003F9817FA
S113029030F06C2F80E09FE3D5DF80E001C081E087
S11302A0CF9108951F920F920FB60F9211242F939E
S11302B03F934F935F936F937F938F939F93AF93EA
S11302C0BF93CF93DF93EF93FF93C0E1D8E06D85A5
S11302D083E29FE3B7DF83E08A87FF91EF91DF91A9
S11302E0CF91BF91AF919F918F917F916F915F91CA
S11302F04F913F912F910F900FBE0F901F90189523
S1130300E9E4FFE380E18083118A128AE3E2FFE3F8
S113031080E2808311A212A2E0E0FFE3808311A2B5
S113032012A20895E0E4FAE082E0808381E085830C
S11303308087118280E49FE1848795878081816032
S11303408083808581608087E0E0F4E080E88183B9
S1130350A0E2B4E090E111969C93119715969C93BA
S11303608583089580E180932504E0E4FAE08081A8
S113037081608083089580E880930504E0E4FAE0D6
S113038080818160808308951F920F920FB60F922F
S113039011248F93EF93FF93E0E4FAE081E08683E6
S11303A080818E7F808380E88093060480E180933F
S11303B02604FF91EF918F910F900FBE0F901F9025
S11303C0189588ED84BFE0E6F0E081818E7F81831B
S11303D00895E0E0FAE0118282EE94E086A397A308
S11303E081E08287868789E0808308951F920F9237
S11303F00FB60F9211248F9381E080930B0A8091A2
S11304005F3F811104C081E080935F3F02C010927E
S11304105F3F8F910F900FBE0F901F9018958091A2
S1130420603F882309F462C08091613F882309F406
S113043061C080915F3F811133C086E79FE36CDE2A
S1130440882309F468C086E79FE371DE80935E3FEA
S11304501092200A1092210AA6E7BFE39296EC912B
S11304609297EF5F9C91E91708F0E0E0F0E0EA581A
S1130470F04C918199231CF491E090935F3F00DF4D
S113048081111092613F80915D3F882309F443C03C
S113049080915E3FCCD08823F1F11092603F0895A3
S11304A083E29FE339DE8823B1F183E29FE33FDEF9
S11304B080935E3F1092200A1092210AA3E2BFE3C8
S11304C09296EC919297EF5F9C91E91708F0E0E027
S11304D0F0E0ED5DF04C9181992314F410925F3FAC
S11304E0A6D08823C1F01092603F08958091613FA7
S11304F0811109C080915E3FC3DE81110CC081E08F
S11305008093613F089580915E3F91D0811103C033
S113051081E08093603F089554DF5BDF28D0A7DD3E
S113052001DF80E18093210480E880930104EEE5FB
S1130530FFE3118281E08283838378942FE78FE441
S113054092E1215080409040E1F700C000008CE42B
S113055097DE81E0B5DDC0E2D4E0888584708093C5
S11305605D3F5DDFA9DD8823C1F30EDEF6CF109277
S11305700102E0E2F4E080E8828B94E091839583C9
S113058020E03AE0209308083093090891E0909322
S11305900B0893E09093070898E0928380930508F2
S11305A080EC8093060808951F920F920FB60F9265
S11305B011242F933F934F935F936F938F939F9344
S11305C0EF93FF9360910008E6E7FFE321A192A176
S11305D0291718F0822F891B04C08091763F820F5F
S11305E0891B3091763F90E0432F50E042505109EF
S11305F08417950774F42F5F231718F42093973FFB
S113060002C01092973FE091973FF0E0EA58F04C17
S11306106183FF91EF919F918F916F915F914F91C2
S11306203F912F910F900FBE0F901F901895CF936D
S1130630C82F83E69FE335DD8F3F09F14091633F87
S113064090E0242F30E0225031098217930784F47C
S11306508091743F8F5F841718F48093743F02C0B5
S11306601092743FE091743FF0E0ED59F04CC18377
S1130670E5E0F8E080818062808380E001C081E071
S1130680CF9108951F920F920FB60F9211242F93BA
S11306903F934F935F936F937F938F939F93AF9306
S11306A0BF93EF93FF9383E69FE3FBDC8823A1F0E2
S11306B0E3E6FFE382898F5F828B9081891710F0D4
S11306C01092753FE091753FF0E0ED59F04C818157
S11306D08093020847DE05C0E5E0F8E080818F7D65
S11306E08083FF91EF91BF91AF919F918F917F9103
S11306F06F915F914F913F912F910F900FBE0F908B
S11307001F901895E6E7FFE380E2808311A212A20E
S1130710E3E6FFE380E18083118A128A0895EE0FF5
S1110720FF1F0590F491E02D0994F894FFCF8B
S9030000FC
