S018000049324D4944495F496E746572666163652E737265637E
S11300000C9436000C9453000C9453000C9453003D
S11300100C9453000C9453000C9453000C94530010
S11300200C9453000C9453000C9453000C94530000
S11300300C9453000C9453000C9453000C945300F0
S11300400C9453000C9453000C94A5010C94CD0112
S11300500C9453000C9453000C9453000C945300D0
S11300600C94B0000C9453000801010211241FBE2B
S1130070CFEFD8E0DEBFCDBF25E0A0E0B1E001C006
S11300801D92A133B207E1F710E0C6E3D0E004C04B
S11300902197FE010E940A02C433D107C9F70E94C6
S11300A032010C9410020C94000088E48093B80090
S11300B088ED8093BA0085E48093BC000895809114
S11300C00403811108C0ECEBF0E08081806280833E
S11300D081E0809304030895ECEBF0E0808180617B
S11300E080831092040308958091050390E0FC013D
S11300F0E95FFC4F208121110DC00E946C008091AA
S113010005038F5F803218F48093050308951092DD
S113011005030895FC01E95FFC4F2150208380E032
S113012091E00E945501809327038093BB000895BA
S11301308091060390910503891B0895CF93C82FDE
S113014080E091E00E9478018F3F39F06C2F80E0CD
S113015091E00E94670180E001C081E0CF910895A1
S11301601F920F920FB60F9211242F933F934F9328
S11301705F936F937F938F939F93AF93BF93EF930B
S1130180FF938091B900382F387F982F907F21E01A
S1130190903809F020E0211106C021E0903909F0DF
S11301A020E0222339F06091BB0082E092E00E94BB
S11301B0670118C021E0982F987D983009F020E05D
S11301C0211106C091E0303109F090E0992321F02B
S11301D081E00E94740006C0887E803219F480E0B9
S11301E00E947400ECEBF0E0808180688083FF91D2
S11301F0EF91BF91AF919F918F917F916F915F919B
S11302004F913F912F910F900FBE0F901F90189513
S113021082E092E00E944E0180E091E00E944E0153
S1130220089580912B03882329F080912C0388233F
S113023029F0089580912C0381110AC0809129032B
S11302400E949E0081110DC081E080932C030895CB
S1130250809129030E948E01811103C081E0809363
S11302602B0308950E9481010E94550080E185B905
S113027088E084B9E9E2F3E0118281E08283838338
S113028083B182958170809328030E9411010E949A
S113029098008823A9F30E945F00F2CFFC01EF5F6E
S11302A0FE4F1082319710820895FC01EF5FFE4FDC
S11302B0208131973081321741F02F5F31962083AE
S11302C0FC01E20FF11D8081089580E00895FC0196
S11302D0F395208131963081422F431B4F3F39F0F3
S11302E02F5F31972083FC01E20FF11D6083089595
S11302F0DC01B395FC01EF5FFE4F8C919081891B6B
S113030008958DE69DEF9093C5008093C40088E91D
S11303108093C10086E08093C2000895CF93C82FD4
S11303208DE293E00E9478018F3F61F06C2F8DE2A3
S113033093E00E946701E1ECF0E0808180628083B9
S113034080E001C081E0CF9108951F920F920FB613
S11303500F9211242F933F934F935F936F937F9347
S11303608F939F93AF93BF93EF93FF936091C600D6
S11303708FE294E00E946701FF91EF91BF91AF91EA
S11303809F918F917F916F915F914F913F912F91A9
S11303900F900FBE0F901F9018951F920F920FB6DB
S11303A00F9211242F933F934F935F936F937F93F7
S11303B08F939F93AF93BF93EF93FF938DE293E05B
S11303C00E947801882339F08DE293E00E94550160
S11303D08093C60005C0E1ECF0E080818F7D8083CE
S11303E0FF91EF91BF91AF919F918F917F916F9109
S11303F05F914F913F912F910F900FBE0F901F90DF
S113040018958FE294E00E944E018DE293E00E94E1
S11304104E010895EE0FFF1F0590F491E02D09940D
S1070420F894FFCF7A
S9030000FC
