S018000049324D4944495F496E746572666163652E737265637E
S11300001BC034C033C032C031C030C02FC02EC07A
S113001087C12CC02BC02AC029C051C127C026C00B
S113002025C024C023C0EFC08AC020C036C2A3C2EA
S11300301DC01CC03101FA0211241FBECFEFCDBF79
S1130040DFE3DEBF2FE3A0E0BFE301C01D92A939C7
S1130050B207E1F710E0CCE1D0E003C02197FE0144
S1130060D6D2CA31D107D1F7EED1D7C2C9CFE0E198
S1130070F8E083E6868381E5838381E0858388EDE8
S1130080848783E8818708958091473F811108C060
S11300901092463F81E08093473F88ED8093170894
S11300A00895E0E1F8E08481836084831092473FFF
S11300B00895FC0181892289821710F0821B08951A
S11300C09081890F821B089589E49FE3F2DF0895EC
S11300D0FC0181A122A1821710F0821B0895908156
S11300E0890F821B0895CF93DF93EC01F1DF8823FE
S11300F059F08AA18F5F8AA39881891708F01AA200
S11301008AA1C80FD11D8981DF91CF9108958823D9
S113011071F08091483F811102C0C3DF089581507E
S11301208093483F80E09FE3DEDF80935C3F81E083
S11301308093463F80915C3F8093180808951F92F6
S11301400F920FB60F9211242F933F934F935F9307
S11301506F937F938F939F93AF93BF93EF93FF938B
S11301608091150883FF0CC08091463F882311F0CD
S113017080E0CDDFE0E1F8E085818860858302C01E
S113018081E0C5DFFF91EF91BF91AF919F918F9176
S11301907F916F915F914F913F912F910F900FBE7F
S11301A00F901F9018951F93CF93DF93EC01162F98
S11301B08FDF488190E0242F30E0225031098217EC
S11301C093075CF489A18F5F841710F489A301C09D
S11301D019A289A1C80FD11D1983DF91CF911F9155
S11301E00895CF93C82F80E09FE372DF9091003F82
S11301F0981730F06C2F80E09FE3D5DF80E001C0DA
S113020081E0CF9108951F920F920FB60F9211249F
S11302102F933F934F935F936F937F938F939F930A
S1130220AF93BF93CF93DF93EF93FF93C0E1D8E0F5
S11302306D8583E29FE3B7DF83E08A87FF91EF91C7
S1130240DF91CF91BF91AF919F918F917F916F91EA
S11302505F914F913F912F910F900FBE0F901F9080
S11302601895E9E4FFE380E18083118A128AE3E2CE
S1130270FFE380E2808311A212A2E0E0FFE3808327
S113028011A212A20895E0E4FAE082E0808381E002
S11302908583118280EA9FE08487958780818160CD
S11302A08083E0E0F4E080E88183A0E2B4E090E1C0
S11302B011969C93119715969C93858308951F928C
S11302C00F920FB60F9211248F93EF93FF93E0E4F4
S11302D0FAE081E0868380818E7F808380E880934A
S11302E0060480E180932604FF91EF918F910F9093
S11302F00FBE0F901F90189588ED84BFE0E6F0E0E4
S113030081818E7F81830895E0E0FAE0118282EE9C
S113031094E086A397A381E0828789E0808308958F
S11303201F920F920FB60F9211248F9380915F3F0B
S1130330811104C081E080935F3F02C010925F3F4F
S11303408F910F900FBE0F901F9018958091603F72
S1130350882309F462C08091613F882309F461C055
S113036080915F3F811133C086E79FE3B1DE88232C
S113037009F468C086E79FE3B6DE80935E3F10927F
S1130380200A1092210AA6E7BFE39296EC91929775
S1130390EF5F9C91E91708F0E0E0F0E0EA58F04CD8
S11303A0918199231CF491E090935F3F1ADF8111AE
S11303B01092613F80915D3F882309F443C080918E
S11303C05E3FAED08823F1F11092603F089583E23E
S11303D09FE37EDE8823B1F183E29FE384DE809392
S11303E05E3F1092200A1092210AA3E2BFE3929684
S11303F0EC919297EF5F9C91E91708F0E0E0F0E050
S1130400ED5DF04C9181992314F410925F3F88D0F4
S11304108823C1F01092603F08958091613F81115B
S113042009C080915E3FDDDE81110CC081E08093C4
S1130430613F089580915E3F73D0811103C081E0D4
S11304408093603F089558DF5FDF1CD010DE1BDF10
S113045080E18093210480E880930104EEE5FFE3CA
S1130460118281E082838383C0E2D4E0888582FBA9
S1130470882780F980935D3F69DF26DE8823B1F306
S113048003DEF4CFE0E0F8E080E090EA8087918733
S113049080E8858380EC868308951F920F920FB6BF
S11304A00F9211242F933F934F935F936F938F93E6
S11304B09F93EF93FF9360910008E6E7FFE321A188
S11304C092A1291718F0822F891B04C08091763FCE
S11304D0820F891B3091763F90E0432F50E04250C9
S11304E051098417950774F42F5F231718F4209388
S11304F0973F02C01092973FE091973FF0E0EA588F
S1130500F04C6183FF91EF919F918F916F915F9177
S11305104F913F912F910F900FBE0F901F90189500
S1130520CF93C82F83E69FE3C4DD8F3F09F1409149
S1130530633F90E0242F30E0225031098217930763
S113054084F48091743F8F5F841718F48093743F10
S113055002C01092743FE091743FF0E0ED59F04C0A
S1130560C183E0E0F8E085818062858380E001C09A
S113057081E0CF9108951F920F920FB60F9211242C
S11305802F933F934F935F936F937F938F939F9397
S1130590AF93BF93EF93FF9383E69FE38ADD8823B2
S11305A099F0E3E6FFE382898F5F828B908189175C
S11305B010F01092753FE091753FF0E0ED59F04C6A
S11305C081818093020805C0E0E0F8E085818F7D99
S11305D08583FF91EF91BF91AF919F918F917F910F
S11305E06F915F914F913F912F910F900FBE0F909C
S11305F01F901895E6E7FFE380E2808311A212A220
S1130600E3E6FFE380E18083118A128A0895EE0F06
S1110610FF1F0590F491E02D0994F894FFCF9C
S9030000FC
