S018000049324D4944495F496E746572666163652E737265637E
S11300000C9435000C9452000C9452000C94520041
S11300100C9452000C9452000C9452000C94520014
S11300200C9452000C9452000C9452000C94520004
S11300300C9452000C9452000C9452000C945200F4
S11300400C9452000C9452000C9488000C94B00050
S11300500C9452000C9452000C9452000C945200D4
S11300600C9452000C945200E40011241FBECFEFF4
S1130070D8E0DEBFCDBF23E0A0E0B1E001C01D9217
S1130080A430B207E1F710E0C5E3D0E004C0219743
S1130090FE010E94ED00C433D107C9F70E94540049
S11300A00C94F3000C940000FFCFFC01EF5FFE4FB3
S11300B01082319710820895FC01EF5FFE4F20817A
S11300C031973081321741F02F5F31962083FC0144
S11300D0E20FF11D8081089580E00895FC01F395FD
S11300E0208131963081422F431B4F3F39F02F5FDF
S11300F031972083FC01E20FF11D60830895DC0138
S1130100B395FC01EF5FFE4F8C919081891B08959C
S11301101F920F920FB60F9211242F933F934F9378
S11301205F936F937F938F939F93AF93BF93EF935B
S1130130FF936091C60082E092E00E946E00FF91FE
S1130140EF91BF91AF919F918F917F916F915F914B
S11301504F913F912F910F900FBE0F901F901895C4
S11301601F920F920FB60F9211242F933F934F9328
S11301705F936F937F938F939F93AF93BF93EF930B
S1130180FF9380E091E00E947F00882339F080E0B3
S113019091E00E945C008093C60005C0E1ECF0E0B1
S11301A080818F7D8083FF91EF91BF91AF919F916B
S11301B08F917F916F915F914F913F912F910F900C
S11301C00FBE0F901F90189582E092E00E94550098
S11301D080E091E00E9455000895EE0FFF1F059006
S10D01E0F491E02D0994F894FFCF88
S9030000FC
