S018000049324D4944495F496E746572666163652E737265637E
S11300001BC034C033C032C031C030C02FC02EC07A
S11300109CC12CC02BC02AC029C065C127C026C0E2
S113002025C024C023C0F0C08BC020C077C2E4C266
S11300301DC01CC032013C0311241FBECFEFCDBF35
S1130040DFE3DEBF2FE3A0E0BFE301C01D92AA39C6
S1130050B207E1F710E0CCE1D0E003C02197FE0144
S113006018D3CA31D107D1F71FD219C387C1E0E130
S1130070F8E083E6868381E5838381E0858388EDE8
S1130080848783E8818708958091473F811108C060
S11300901092463F81E08093473F88ED8093170894
S11300A00895E0E1F8E08481836084831092473FFF
S11300B00895FC0181892289821710F0821B08951A
S11300C09081890F821B089589E49FE3F2DF0895EC
S11300D0FC0181A122A1821710F0821B0895908156
S11300E0890F821B0895CF93DF93EC01F1DF8823FE
S11300F059F08AA18F5F8AA39881891708F01AA200
S11301008AA1C80FD11D8981DF91CF9108958823D9
S113011071F08091483F811102C0C3DF089581507E
S11301208093483F80E09FE3DEDF80935C3F81E083
S11301308093463F80915C3F80931808CBD008950C
S11301401F920F920FB60F9211242F933F934F9348
S11301505F936F937F938F939F93AF93BF93EF932B
S1130160FF938091150883FF0CC08091463F88233C
S113017011F080E0CCDFE0E1F8E0858188608583E0
S113018002C081E0C4DFFF91EF91BF91AF919F91D5
S11301908F917F916F915F914F913F912F910F902C
S11301A00FBE0F901F9018951F93CF93DF93EC0110
S11301B0162F8EDF488190E0242F30E02250310941
S11301C0821793075CF489A18F5F841710F489A3C5
S11301D001C019A289A1C80FD11D1983DF91CF9144
S11301E01F910895CF93C82F80E09FE371DF909112
S11301F0003F981730F06C2F80E09FE3D5DF80E05C
S113020001C081E0CF9108951F920F920FB60F9213
S113021011242F933F934F935F936F937F938F9307
S11302209F93AF93BF93CF93DF93EF93FF93C0E17B
S1130230D8E06D8583E29FE3B7DF83E08A87FF918F
S1130240EF91DF91CF91BF91AF919F918F917F916A
S11302506F915F914F913F912F910F900FBE0F902F
S11302601F901895E9E4FFE380E18083118A128AE4
S1130270E3E2FFE380E2808311A212A2E0E0FFE365
S1130280808311A212A20895E0E4FAE082E0808360
S113029081E085831086118280E49FE184879587BD
S11302A0808181608083E0E0F4E080E88183A0E2E3
S11302B0B4E090E111969C93119715969C938583D5
S11302C0089580E180932504E0E4FAE08081816070
S11302D08083089580E880930504E0E4FAE0808157
S11302E08160808308951F920F920FB60F9211249C
S11302F08F93EF93FF93E0E4FAE081E086838081BB
S11303008E7F808380E88093060480E180932604B6
S1130310FF91EF918F910F900FBE0F901F90189542
S113032088ED84BFE0E6F0E081818E7F81830895CB
S1130330E0E0FAE0118282EE94E086A397A381E0E4
S11303408287168689E0808308951F920F920FB6E4
S11303500F9211248F9381E080930B0A8091603F68
S1130360811104C081E08093603F02C01092603F1D
S11303708F910F900FBE0F901F9018951F920F92A0
S11303800FB60F9211248F93CF93DF931F92CDB7A3
S1130390DEB788E08983898180935D3F0F90DF9188
S11303A0CF918F910F900FBE0F901F901895809151
S11303B0613F882309F462C08091623F882309F475
S11303C061C08091603F811133C087E79FE380DE85
S11303D0882309F468C087E79FE385DE80935F3F45
S11303E01092200A1092210AA7E7BFE39296EC919B
S11303F09297EF5F9C91E91708F0E0E0F0E0E9588C
S1130400F04C918199231CF491E09093603FEADED3
S113041081111092623F80915E3F882309F443C0AA
S113042080915F3FBED08823F1F11092613F08951F
S113043083E29FE34DDE8823B1F183E29FE353DE41
S113044080935F3F1092200A1092210AA3E2BFE337
S11304509296EC919297EF5F9C91E91708F0E0E097
S1130460F0E0ED5DF04C9181992314F41092603F1B
S113047098D08823C1F01092613F08958091623F23
S1130480811109C080915F3FADDE81110CC081E014
S11304908093623F089580915F3F83D0811103C0B0
S11304A081E08093613F08953BDF42DF1BD0DFDDB5
S11304B0EBDE80E18093210480E880930104EFE582
S11304C0FFE3118281E0828383837894C0E2D4E0E5
S11304D08885847080935E3F6ADFF6DD8823C1F3EC
S11304E0D3DDF6CF10920102E0E2F4E080E8828BE3
S11304F094E09183958320E03AE0209308083093B8
S1130500090810920B0893E09093070898E09283EF
S11305108093050880EC8093060808951F920F923B
S11305200FB60F9211242F933F934F935F936F93C2
S11305308F939F93EF93FF9360910008E7E7FFE3A6
S113054021A192A1291718F0822F891B04C0809140
S1130550773F820F891B3091773F90E0432F50E023
S1130560425051098417950774F42F5F231718F428
S11305702093983F02C01092983FE091983FF0E09A
S1130580E958F04C6183FF91EF919F918F916F91A6
S11305905F914F913F912F910F900FBE0F901F903D
S11305A01895CF93C82F84E69FE383DD8F3F09F12D
S11305B04091643F90E0242F30E0225031098217AB
S11305C0930784F48091753F8F5F841718F48093A8
S11305D0753F02C01092753FE091753FF0E0EC5911
S11305E0F04CC183E5E0F8E080818062808380E0A4
S11305F001C081E0CF9108951F920F920FB60F9220
S113060011242F933F934F935F936F937F938F9313
S11306109F93AF93BF93EF93FF9384E69FE349DDEA
S11306208823A1F0E4E6FFE382898F5F828B9081C7
S1130630891710F01092763FE091763FF0E0EC5984
S1130640F04C8181809302083CDE05C0E5E0F8E0CF
S113065080818F7D8083FF91EF91BF91AF919F91B6
S11306608F917F916F915F914F913F912F910F9057
S11306700FBE0F901F901895E7E7FFE380E2808399
S113068011A212A2E4E6FFE380E18083118A128AB8
S11306900895EE0FFF1F0590F491E02D0994F8944E
S10506A0FFCF86
S9030000FC
